{
	"data": {
		"bytecode": {
			"linkReferences": {},
			"object": "60806040525f80553480156011575f80fd5b506102f78061001f5f395ff3fe608060405234801561000f575f80fd5b506004361061004a575f3560e01c80630727f0e81461004e57806340fc05021461006a5780634f798ac014610088578063f2bc1407146100a4575b5f80fd5b61006860048036038101906100639190610191565b6100c0565b005b6100726100eb565b60405161007f91906101d4565b60405180910390f35b6100a2600480360381019061009d9190610191565b6100f3565b005b6100be60048036038101906100b99190610191565b61011e565b005b806effffffffffffffffffffffffffffff165f808282546100e1919061021a565b9250508190555050565b5f8054905090565b806effffffffffffffffffffffffffffff165f80828254610114919061024d565b9250508190555050565b806effffffffffffffffffffffffffffff165f8082825461013f919061028e565b9250508190555050565b5f80fd5b5f6effffffffffffffffffffffffffffff82169050919050565b6101708161014d565b811461017a575f80fd5b50565b5f8135905061018b81610167565b92915050565b5f602082840312156101a6576101a5610149565b5b5f6101b38482850161017d565b91505092915050565b5f819050919050565b6101ce816101bc565b82525050565b5f6020820190506101e75f8301846101c5565b92915050565b7f4e487b71000000000000000000000000000000000000000000000000000000005f52601160045260245ffd5b5f610224826101bc565b915061022f836101bc565b9250828201905080821115610247576102466101ed565b5b92915050565b5f610257826101bc565b9150610262836101bc565b9250828202610270816101bc565b91508282048414831517610287576102866101ed565b5b5092915050565b5f610298826101bc565b91506102a3836101bc565b92508282039050818111156102bb576102ba6101ed565b5b9291505056fea2646970667358221220e1a4b0058673c227bf73e0c1a5ce592a0baa47935bd8e337827bce7d8f43e15464736f6c634300081a0033",
			"opcodes": "PUSH1 0x80 PUSH1 0x40 MSTORE PUSH0 DUP1 SSTORE CALLVALUE DUP1 ISZERO PUSH1 0x11 JUMPI PUSH0 DUP1 REVERT JUMPDEST POP PUSH2 0x2F7 DUP1 PUSH2 0x1F PUSH0 CODECOPY PUSH0 RETURN INVALID PUSH1 0x80 PUSH1 0x40 MSTORE CALLVALUE DUP1 ISZERO PUSH2 0xF JUMPI PUSH0 DUP1 REVERT JUMPDEST POP PUSH1 0x4 CALLDATASIZE LT PUSH2 0x4A JUMPI PUSH0 CALLDATALOAD PUSH1 0xE0 SHR DUP1 PUSH4 0x727F0E8 EQ PUSH2 0x4E JUMPI DUP1 PUSH4 0x40FC0502 EQ PUSH2 0x6A JUMPI DUP1 PUSH4 0x4F798AC0 EQ PUSH2 0x88 JUMPI DUP1 PUSH4 0xF2BC1407 EQ PUSH2 0xA4 JUMPI JUMPDEST PUSH0 DUP1 REVERT JUMPDEST PUSH2 0x68 PUSH1 0x4 DUP1 CALLDATASIZE SUB DUP2 ADD SWAP1 PUSH2 0x63 SWAP2 SWAP1 PUSH2 0x191 JUMP JUMPDEST PUSH2 0xC0 JUMP JUMPDEST STOP JUMPDEST PUSH2 0x72 PUSH2 0xEB JUMP JUMPDEST PUSH1 0x40 MLOAD PUSH2 0x7F SWAP2 SWAP1 PUSH2 0x1D4 JUMP JUMPDEST PUSH1 0x40 MLOAD DUP1 SWAP2 SUB SWAP1 RETURN JUMPDEST PUSH2 0xA2 PUSH1 0x4 DUP1 CALLDATASIZE SUB DUP2 ADD SWAP1 PUSH2 0x9D SWAP2 SWAP1 PUSH2 0x191 JUMP JUMPDEST PUSH2 0xF3 JUMP JUMPDEST STOP JUMPDEST PUSH2 0xBE PUSH1 0x4 DUP1 CALLDATASIZE SUB DUP2 ADD SWAP1 PUSH2 0xB9 SWAP2 SWAP1 PUSH2 0x191 JUMP JUMPDEST PUSH2 0x11E JUMP JUMPDEST STOP JUMPDEST DUP1 PUSH15 0xFFFFFFFFFFFFFFFFFFFFFFFFFFFFFF AND PUSH0 DUP1 DUP3 DUP3 SLOAD PUSH2 0xE1 SWAP2 SWAP1 PUSH2 0x21A JUMP JUMPDEST SWAP3 POP POP DUP2 SWAP1 SSTORE POP POP JUMP JUMPDEST PUSH0 DUP1 SLOAD SWAP1 POP SWAP1 JUMP JUMPDEST DUP1 PUSH15 0xFFFFFFFFFFFFFFFFFFFFFFFFFFFFFF AND PUSH0 DUP1 DUP3 DUP3 SLOAD PUSH2 0x114 SWAP2 SWAP1 PUSH2 0x24D JUMP JUMPDEST SWAP3 POP POP DUP2 SWAP1 SSTORE POP POP JUMP JUMPDEST DUP1 PUSH15 0xFFFFFFFFFFFFFFFFFFFFFFFFFFFFFF AND PUSH0 DUP1 DUP3 DUP3 SLOAD PUSH2 0x13F SWAP2 SWAP1 PUSH2 0x28E JUMP JUMPDEST SWAP3 POP POP DUP2 SWAP1 SSTORE POP POP JUMP JUMPDEST PUSH0 DUP1 REVERT JUMPDEST PUSH0 PUSH15 0xFFFFFFFFFFFFFFFFFFFFFFFFFFFFFF DUP3 AND SWAP1 POP SWAP2 SWAP1 POP JUMP JUMPDEST PUSH2 0x170 DUP2 PUSH2 0x14D JUMP JUMPDEST DUP2 EQ PUSH2 0x17A JUMPI PUSH0 DUP1 REVERT JUMPDEST POP JUMP JUMPDEST PUSH0 DUP2 CALLDATALOAD SWAP1 POP PUSH2 0x18B DUP2 PUSH2 0x167 JUMP JUMPDEST SWAP3 SWAP2 POP POP JUMP JUMPDEST PUSH0 PUSH1 0x20 DUP3 DUP5 SUB SLT ISZERO PUSH2 0x1A6 JUMPI PUSH2 0x1A5 PUSH2 0x149 JUMP JUMPDEST JUMPDEST PUSH0 PUSH2 0x1B3 DUP5 DUP3 DUP6 ADD PUSH2 0x17D JUMP JUMPDEST SWAP2 POP POP SWAP3 SWAP2 POP POP JUMP JUMPDEST PUSH0 DUP2 SWAP1 POP SWAP2 SWAP1 POP JUMP JUMPDEST PUSH2 0x1CE DUP2 PUSH2 0x1BC JUMP JUMPDEST DUP3 MSTORE POP POP JUMP JUMPDEST PUSH0 PUSH1 0x20 DUP3 ADD SWAP1 POP PUSH2 0x1E7 PUSH0 DUP4 ADD DUP5 PUSH2 0x1C5 JUMP JUMPDEST SWAP3 SWAP2 POP POP JUMP JUMPDEST PUSH32 0x4E487B7100000000000000000000000000000000000000000000000000000000 PUSH0 MSTORE PUSH1 0x11 PUSH1 0x4 MSTORE PUSH1 0x24 PUSH0 REVERT JUMPDEST PUSH0 PUSH2 0x224 DUP3 PUSH2 0x1BC JUMP JUMPDEST SWAP2 POP PUSH2 0x22F DUP4 PUSH2 0x1BC JUMP JUMPDEST SWAP3 POP DUP3 DUP3 ADD SWAP1 POP DUP1 DUP3 GT ISZERO PUSH2 0x247 JUMPI PUSH2 0x246 PUSH2 0x1ED JUMP JUMPDEST JUMPDEST SWAP3 SWAP2 POP POP JUMP JUMPDEST PUSH0 PUSH2 0x257 DUP3 PUSH2 0x1BC JUMP JUMPDEST SWAP2 POP PUSH2 0x262 DUP4 PUSH2 0x1BC JUMP JUMPDEST SWAP3 POP DUP3 DUP3 MUL PUSH2 0x270 DUP2 PUSH2 0x1BC JUMP JUMPDEST SWAP2 POP DUP3 DUP3 DIV DUP5 EQ DUP4 ISZERO OR PUSH2 0x287 JUMPI PUSH2 0x286 PUSH2 0x1ED JUMP JUMPDEST JUMPDEST POP SWAP3 SWAP2 POP POP JUMP JUMPDEST PUSH0 PUSH2 0x298 DUP3 PUSH2 0x1BC JUMP JUMPDEST SWAP2 POP PUSH2 0x2A3 DUP4 PUSH2 0x1BC JUMP JUMPDEST SWAP3 POP DUP3 DUP3 SUB SWAP1 POP DUP2 DUP2 GT ISZERO PUSH2 0x2BB JUMPI PUSH2 0x2BA PUSH2 0x1ED JUMP JUMPDEST JUMPDEST SWAP3 SWAP2 POP POP JUMP INVALID LOG2 PUSH5 0x6970667358 0x22 SLT KECCAK256 0xE1 LOG4 0xB0 SDIV DUP7 PUSH20 0xC227BF73E0C1A5CE592A0BAA47935BD8E337827B 0xCE PUSH30 0x8F43E15464736F6C634300081A0033000000000000000000000000000000 "
		},
		"gasEstimates": {
			"creation": {
				"codeDepositCost": "151800",
				"executionCost": "5199",
				"totalCost": "156999"
			},
			"external": {
				"add(uint120)": "infinite",
				"getresult()": "2432",
				"multiply(uint120)": "infinite",
				"substract(uint120)": "infinite"
			}
		},
		"methodIdentifiers": {
			"add(uint120)": "0727f0e8",
			"getresult()": "40fc0502",
			"multiply(uint120)": "4f798ac0",
			"substract(uint120)": "f2bc1407"
		}
	},
	"abi": [
		{
			"inputs": [
				{
					"internalType": "uint120",
					"name": "num",
					"type": "uint120"
				}
			],
			"name": "add",
			"outputs": [],
			"stateMutability": "nonpayable",
			"type": "function"
		},
		{
			"inputs": [],
			"name": "getresult",
			"outputs": [
				{
					"internalType": "uint256",
					"name": "",
					"type": "uint256"
				}
			],
			"stateMutability": "view",
			"type": "function"
		},
		{
			"inputs": [
				{
					"internalType": "uint120",
					"name": "num",
					"type": "uint120"
				}
			],
			"name": "multiply",
			"outputs": [],
			"stateMutability": "nonpayable",
			"type": "function"
		},
		{
			"inputs": [
				{
					"internalType": "uint120",
					"name": "num",
					"type": "uint120"
				}
			],
			"name": "substract",
			"outputs": [],
			"stateMutability": "nonpayable",
			"type": "function"
		}
	]
}